{
  "contractName": "GoodAuction",
  "abi": [
    {
      "constant": true,
      "inputs": [],
      "name": "getHighestBidder",
      "outputs": [
        {
          "name": "",
          "type": "address"
        }
      ],
      "payable": false,
      "stateMutability": "view",
      "type": "function"
    },
    {
      "constant": true,
      "inputs": [],
      "name": "getHighestBid",
      "outputs": [
        {
          "name": "",
          "type": "uint256"
        }
      ],
      "payable": false,
      "stateMutability": "view",
      "type": "function"
    },
    {
      "payable": true,
      "stateMutability": "payable",
      "type": "fallback"
    },
    {
      "constant": false,
      "inputs": [],
      "name": "bid",
      "outputs": [
        {
          "name": "",
          "type": "bool"
        }
      ],
      "payable": true,
      "stateMutability": "payable",
      "type": "function"
    },
    {
      "constant": false,
      "inputs": [],
      "name": "withdrawRefund",
      "outputs": [
        {
          "name": "",
          "type": "bool"
        }
      ],
      "payable": false,
      "stateMutability": "nonpayable",
      "type": "function"
    },
    {
      "constant": true,
      "inputs": [],
      "name": "getMyBalance",
      "outputs": [
        {
          "name": "",
          "type": "uint256"
        }
      ],
      "payable": false,
      "stateMutability": "view",
      "type": "function"
    },
    {
      "constant": false,
      "inputs": [],
      "name": "reduceBid",
      "outputs": [],
      "payable": false,
      "stateMutability": "nonpayable",
      "type": "function"
    }
  ],
  "bytecode": "0x6060604052341561000f57600080fd5b6105158061001e6000396000f300606060405260043610610077576000357c0100000000000000000000000000000000000000000000000000000000900463ffffffff1680623495a41461007c578063057ae235146100d1578063110f8874146100e65780631998aeef146101135780634979440a146101355780634c7389091461015e575b600080fd5b341561008757600080fd5b61008f610187565b604051808273ffffffffffffffffffffffffffffffffffffffff1673ffffffffffffffffffffffffffffffffffffffff16815260200191505060405180910390f35b34156100dc57600080fd5b6100e46101b0565b005b34156100f157600080fd5b6100f9610294565b604051808215151515815260200191505060405180910390f35b61011b61037f565b604051808215151515815260200191505060405180910390f35b341561014057600080fd5b610148610498565b6040518082815260200191505060405180910390f35b341561016957600080fd5b6101716104a2565b6040518082815260200191505060405180910390f35b60008060009054906101000a900473ffffffffffffffffffffffffffffffffffffffff16905090565b6000809054906101000a900473ffffffffffffffffffffffffffffffffffffffff1673ffffffffffffffffffffffffffffffffffffffff163373ffffffffffffffffffffffffffffffffffffffff1614151561020b57600080fd5b6000600154111561028d576000809054906101000a900473ffffffffffffffffffffffffffffffffffffffff1673ffffffffffffffffffffffffffffffffffffffff166108fc60019081150290604051600060405180830381858888f19350505050151561027857600080fd5b60018060008282540392505081905550610292565b600080fd5b565b6000806000339150600260008373ffffffffffffffffffffffffffffffffffffffff1673ffffffffffffffffffffffffffffffffffffffff1681526020019081526020016000205490506000811115610375576000600260008473ffffffffffffffffffffffffffffffffffffffff1673ffffffffffffffffffffffffffffffffffffffff168152602001908152602001600020819055508173ffffffffffffffffffffffffffffffffffffffff166108fc829081150290604051600060405180830381858888f19350505050151561036c57600080fd5b6001925061037a565b600092505b505090565b60008034905060015481111561044f57600154600260008060009054906101000a900473ffffffffffffffffffffffffffffffffffffffff1673ffffffffffffffffffffffffffffffffffffffff1673ffffffffffffffffffffffffffffffffffffffff16815260200190815260200160002060008282540192505081905550336000806101000a81548173ffffffffffffffffffffffffffffffffffffffff021916908373ffffffffffffffffffffffffffffffffffffffff1602179055508060018190555060019150610494565b3373ffffffffffffffffffffffffffffffffffffffff166108fc829081150290604051600060405180830381858888f19350505050151561048f57600080fd5b600091505b5090565b6000600154905090565b6000600260003373ffffffffffffffffffffffffffffffffffffffff1673ffffffffffffffffffffffffffffffffffffffff168152602001908152602001600020549050905600a165627a7a72305820e1127f93c045c3c697ff9ac6ce1a6e18d24d70bc2cc9a70620947d6de6d523860029",
  "source": "pragma solidity 0.4.19;\n\nimport \"./AuctionInterface.sol\";\n\n/** @title GoodAuction */\ncontract GoodAuction is AuctionInterface {\n\n\t/* New data structure, keeps track of refunds owed */\n\tmapping(address => uint) refunds;\n\n\t/* */\n\t// function GoodAuction() public {\n\t// \thighestBid = 0;\n\t// \thighestBidder = 0;\n\t// }\n\n\t/* \tBid function, now shifted to pull paradigm\n\t\tMust return true on successful send and/or bid, bidder\n\t\treassignment. Must return false on failure and \n\t\tallow people to retrieve their funds  */\n\tfunction bid() payable external returns(bool) {\n\t\t// YOUR CODE HERE\n\t\tuint sentBid = msg.value;\n\n\t\t// If the bid is higher than previous highest, set new highest\n\t\tif (sentBid > highestBid) {\n\t\t\trefunds[highestBidder] += highestBid;\n\t\t\thighestBidder = msg.sender;\n\t\t\thighestBid = sentBid;\n\t\t\treturn true;\n\t\t} else {\n\t\t\t// If bid fails, return funds\n\t\t\tmsg.sender.transfer(sentBid);\n\t\t\treturn false;\n\t\t}\n\t}\n\n\t/*  Implement withdraw function to complete new \n\t    pull paradigm. Returns true on successful \n\t    return of owed funds and false on failure\n\t    or no funds owed.  */\n\tfunction withdrawRefund() external returns(bool) {\n\t\t// YOUR CODE HERE\n\t\taddress refunder = msg.sender;\n\t\tuint refundAmount = refunds[refunder];\n\t\t\n\t\tif (refundAmount > 0) {\n\t\t\trefunds[refunder] = 0;\n\t\t\trefunder.transfer(refundAmount);\n\t\t\treturn true;\n\t\t} else {\n\t\t\treturn false;\n\t\t}\n\t}\n\n\t/*  Allow users to check the amount they are owed\n\t\tbefore calling withdrawRefund(). Function returns\n\t\tamount owed.  */\n\tfunction getMyBalance() constant external returns(uint) {\n\t\treturn refunds[msg.sender];\n\t}\n\n\n\t/* \tConsider implementing this modifier\n\t\tand applying it to the reduceBid function \n\t\tyou fill in below. */\n\tmodifier canReduce() {\n\t\trequire(msg.sender == highestBidder);\n\t\t_;\n\t}\n\n\n\t/*  Rewrite reduceBid from BadAuction to fix\n\t\tthe security vulnerabilities. Should allow the\n\t\tcurrent highest bidder only to reduce their bid amount */\n\tfunction reduceBid() external canReduce() {\n\t\tif (highestBid > 0) {\n\t\t\trequire(highestBidder.send(1));\n\t\t\thighestBid -= 1;\n\t\t} else {\n\t\t\trevert();\n\t\t}\n\t}\n\n\n\t/* \tRemember this fallback function\n\t\tgets invoked if somebody calls a\n\t\tfunction that does not exist in this\n\t\tcontract. But we're good people so we don't\n\t\twant to profit on people's mistakes.\n\t\tHow do we send people their money back?  */\n\n\tfunction () payable {\n\t\t// YOUR CODE HERE\n\t\trevert();\n\t}\n\n}\n",
  "sourcePath": "/Users/Julian/Desktop/Classes/blockchain_developers/sp18-lab03/contracts/GoodAuction.sol",
  "compiler": {
    "name": "solc",
    "version": "0.4.19+commit.c4cbbb05.Emscripten.clang"
  },
  "schemaVersion": "1.0.1",
  "updatedAt": "2018-03-01T22:37:13.557Z"
}